:020000040800F2
:100000006820002045010008131500080D020008B3
:100010001115000861080008011700080000000021
:10002000000000000000000000000000151500089E
:100030006308000800000000970100081715000879
:100040005F0100085F0100085F0100085F01000810
:100050005F0100085F0100085F0100085F01000800
:100060005F0100085F0100085F0100085F010008F0
:100070005F0100085F0100085F0100085F010008E0
:100080005F0100085F0100085F0100085F010008D0
:100090005F0100085F0100085F0100085F010008C0
:1000A0005F0100085F0100085F0100085F010008B0
:1000B0005F0100085F0100085F0100085F010008A0
:1000C0005F0100085F0100085F0100085F01000890
:1000D0005F0100085F0100085F0100085F01000880
:1000E0005F0100085F0100085F0100085F01000870
:1000F0005F0100085F0100085F0100085F01000860
:100100005F0100085F0100085F0100085F0100084F
:100110005F0100085F0100085F0100085F0100083F
:100120005F0100085F0100085F0100085F0100082F
:10013000DFF80CD000F0B6FA00480047AB07000823
:10014000682000200648804706480047FEE7FEE793
:10015000FEE7FEE7FEE7FEE7FEE7FEE7FEE7FEE777
:10016000E115000831010008EFF3108072B6704706
:1001700080F310887047324A1368012B04D04FF087
:10018000010313602F4A10602F4A11602F484FF06F
:10019000805101607047EFF3108272B62848016801
:1001A00091B14FF0000101602648016829B1EFF3D9
:1001B000098121E9F00F0068016023490968096895
:1001C000B1E8F00F81F3098882F310884EF0040E35
:1001D00070471D4908601B494FF00000086018492E
:1001E0004FF0010008601A481A49D0F8002041EA8F
:1001F0000201016015484FF0805101601648006807
:10020000006880F3088861B662B670471EF0040F7C
:100210000CBFEFF30880EFF3098020E9F00F40F8FE
:1002200004ED1EF0040F0CBF80F3088880F30988EA
:1002300000B502F075FD5DF804EB4EF0040E70475A
:1002400020000020180000201C00002004ED00E029
:1002500020ED00E00000FFFF08ED00E0202A04DBB5
:10026000203A21FA02F00021704721FA02F3D0402F
:10027000C2F12002914008431946704740EA010349
:100280009B0703D009E008C9121F08C0042AFAD24C
:1002900003E011F8013B00F8013B521EF9D2704710
:1002A000D2B201E000F8012B491EFBD270470022B8
:1002B000F6E710B513460A4604461946FFF7F0FF65
:1002C000204610BD421E12F8013F002BFBD111F851
:1002D000013B02F8013B002BF9D1704710B50446F1
:1002E00004E00B7800F8013B03B1491C521EF8D220
:1002F000204610BD421C10F8011B0029FBD1801ABA
:100300007047034611F8012B00F8012B002AF9D1A0
:100310001846704730B505460020034600E05B1CD8
:10032000934205D2EC5CC85C201A01D1002CF6D1B6
:1003300030BD70B5064601F0F5F9046805460A229D
:100340000021304600F0E1F82C6070BD2DE9F04D41
:1003500081EA030404F0004B21F0004514464FF0FD
:10036000000A23F0004150EA050220D054EA0102BD
:100370001DD0C5F30A570246C5F31303C1F313009A
:10038000C1F30A5640F4801543F48013A7EB060826
:10039000101BD64608F2FD3873EB050002D308F1B6
:1003A000010801E092185B41B8F1000F03DA002068
:1003B0000146BDE8F08D00204FF4801106468446CA
:1003C0000EE0171B73EB050705D3121B63EB050348
:1003D00006434CEA010C49084FEA300092185B4191
:1003E00050EA0107EDD152EA030012D082EA04007C
:1003F00083EA0501084305D0101BAB4106D2012258
:10040000002306E000224FF0004302E06FF00102FB
:1004100053101AEB06004CEB085110EB0A0041EBAD
:100420000B01BDE8F04D00F0DFB870B521F00043DE
:1004300003430CD0C1F30A550024D5EB040564EB4B
:100440000403D617AD1AB34102DB0020014670BD8C
:10045000201841EB025170BD0EB5C10F80EAE0706B
:100460000844CA07002140F233438DE80E000A46D3
:100470000B4600F0C8F803B000BDC1F30A5210B536
:10048000C1F3130140F2FF3341F480119A4201DAC3
:10049000002010BD40F233439A42A2F2334203DC03
:1004A0005242FFF7DBFE10BD904010BD00F000424D
:1004B00030F000400AD0C10D01F56071C0F31600A4
:1004C00042EA0151C208400711437047002001462B
:1004D000704701F0004330B421F0004150EA0102BE
:1004E00006D00A0DA2F56072C1F31301002A02DCE6
:1004F00030BC00207047440F44EAC104C100E0183A
:1005000030BC00EBC25000F038B82DE9F0479146FE
:100510000F4680460446002614F8015B2DB100F01A
:10052000E3F80068405DC007F6D12B2D02D02D2DD9
:1005300018D0641E4A463946204600F0D9F827B143
:100540003968A14201D1C7F8008071054FF002045B
:100550000BD54042002803DD01F0E4F80460A00759
:10056000BDE8F08746F48066E4E70028F8DA01F099
:10057000D9F804606FF00040F2E70029A8BF704787
:10058000401C490008BF20F00100704710B4B0FAC9
:1005900080FC00FA0CF050EA010404BF10BC704764
:1005A00049B1CCF1200421FA04F411FA0CF118BF7E
:1005B000012121430843A3EB0C01CB1D4FEA00614D
:1005C0004FEA102042BF002010BC704700EBC35020
:1005D00010440029A4BF10BC7047401C490008BF4C
:1005E00020F0010010BC704710B5141E73F1000418
:1005F00008DA401C41F1000192185B411A4301D115
:1006000020F0010010BD2DE9F04D92469B4611B13E
:10061000B1FA81F202E0B0FA80F22032904600F0A6
:1006200053F804460F4640EA0A0041EA0B015346DC
:100630005A46084313D0114653EA010019D0C8F1B5
:1006400040025046FFF70AFE05460E465046594600
:10065000424600F039F8084305D0012004E0204666
:100660003946BDE8F08D0020054346EAE0762C438C
:1006700037430A986305E40AA0EB08000022FD0A4C
:1006800044EA47540A3002D500200146E9E7010553
:1006900010196941DDE9084500196941BDE8F04DCF
:1006A000A2E70000064C074D06E0E06840F00103B9
:1006B00094E8070098471034AC42F6D3FFF73CFDAE
:1006C000044B0008244B0008202A04DB203A00FADF
:1006D00002F1002070479140C2F1200320FA03F399
:1006E0001943904070470000004870479C4600083E
:1006F0002DE9F05F82460078002715468B460AF107
:100700000104B946302801D09DB113E014F8010B63
:100710000127782803D0582801D045B10AE00DB14F
:10072000102D07D10027102514F8010B02E0082531
:1007300000E00A250026B0460EE005FB080005FB98
:1007400006F1012701EB10461FFA80F8B6F5803F4D
:1007500000D3B94614F8010B294600F018F8002818
:10076000EBDABBF1000F05D00FB1641E00E0544678
:10077000CBF80040B9F1000F06D000F0D3FF022102
:100780000160C81EBDE8F09F48EA0640FAE73A2833
:1007900000D2303820F02002412A01D3A2F13700E4
:1007A000884201D34FF0FF30704710B503F078FB5B
:1007B000002010BD70B50024FFF778FE1022FFF76F
:1007C00034FE244A244BFFF7C1FDFFF756FE234DAC
:1007D00086B201221021284600F040F900220421AF
:1007E000284600F03BF900220821284600F036F99F
:1007F00006FA04F0000401D5012200E000224021A5
:10080000284600F02BF900BF00BF00222021284617
:1008100000F024F900BF00BF01222021284600F08B
:100820001DF900BF00BF641CE4B2102CE0D300BF70
:1008300000BF00221021284600F010F901220421F7
:10084000284600F00BF92846BDE870400122082137
:1008500000F004B9FCA9F1D24D621040000801403B
:10086000FEE770472DE9F84FDFF8C891002409F141
:10087000040A0AF1040B23460F270BF1040ED1E002
:100880000125A54006EA0502AA4276D1DFF8A8C1F3
:100890004E68A6EB0C0866452BD00DDC032E34D039
:1008A00005DC36B3012E19D0022E2FD11BE0112EFC
:1008B00016D0122E2AD119E0B8F5881F19D006DCFF
:1008C000B8F5803F15D0B8F5801F1FD111E0B8F5FD
:1008D000001F0ED0B8F5041F18D10AE0CB6815E050
:1008E000CB681B1D12E0CB6808330FE0CB680C33DC
:1008F0000CE08B682BB1012B4FF0080303D045614E
:1009000004E0042302E0056100E00023FF2A01D88F
:10091000064601E000F104064FEA840501D9A5F17D
:100920002005D6F8008007FA05FC28EA0C0803FA2F
:1009300005F548EA0508C6F800804D68ED0070D559
:100940003E4DAE6946F00106AE61AD6924F0030686
:1009500005F0010500953A4D06EB050CDCF8085052
:10096000A607360F07FA06F825EA0805DFF8D4804F
:10097000404503D14FF0000825E052E0DFF8C88081
:10098000404502D14FF001081DE0DFF8C08040452E
:1009900002D14FF0020816E0DFF8B480404502D1E2
:1009A0004FF003080FE0DFF8AC80404502D14FF074
:1009B000040808E0DFF8A080404502D14FF00508A8
:1009C00001E04FF0060808FA06F848EA0508CCF8F6
:1009D00008804D68D9F80060ED034D4601D51643F7
:1009E00000E096432E604D68DAF80060AD0355468E
:1009F00001D5164300E096432E604D68DBF8006099
:100A0000ED025D4601D5164300E096432E604D6829
:100A1000DEF80060AD02754601D5164300E096434E
:100A20002E60641C0A681646E2407FF429AFBDE8D8
:100A3000F88F000000040140000011100010024077
:100A40000000014000080140000C0140001001407E
:100A50000014014000180140001C01400AB101616E
:100A600070470904FBE700000148806870470000F8
:100A70000000002070B5040025D094F83D0000254A
:100A800020B984F83C50204600F0B8F8242084F8BF
:100A90003D002068016821F00101016020680168C3
:100AA00041F4004101602068016821F400410160C7
:100AB00000F0ECF94D4A6168914201D84C4900E0E0
:100AC0004C49884201D2012070BD4B492368B0FBDC
:100AD000F1F15E6826F03F060E435E606368934264
:100AE00006D94FF4967359434FF47A73B1FBF3F17F
:100AF0002368491C1E6A26F03F063143196261686B
:100B0000914210D84900401EB0FBF1F2521CC2F3D2
:100B10000B02042A01D2042022E0B0FBF1F0401CB9
:100B2000C0F30B001CE0A268F2B301EBC10303EBBE
:100B30000116431EB3FBF6F35B1C43F480431B0515
:100B400049D092B301EBC10202EB0111401EB0FB90
:100B5000F1F0401CC0F30B0040F4804040F4004032
:100B60002168CA694CF6FF739A431043C861D4E9FF
:100B7000071001432068026822F0C002114301609F
:100B8000D4E9030101432068826848F2FF339A43A5
:100B900011438160D4E9050108432168CA6822F045
:100BA000FF021043C86001E00EE016E02068016813
:100BB00041F0010101602564202084F83D00256397
:100BC00084F83E50002070BD01EB4106431EB3FB8C
:100BD000F6F35B1CB3E70120C2E701EB4101401EC5
:100BE000B0FBF1F0401CC0F30B00B7E7A08601009A
:100BF00080841E0000093D0040420F0010B586B001
:100C000000210091019102910391006810498842EE
:100C10001BD1104CA06940F00800A061A069694692
:100C200000F0080004904FF4406000901220019002
:100C3000032003900848FFF715FEE06940F48000A8
:100C4000E061E06900F48000049006B010BD00008F
:100C50000058004000100240000C0140074810B549
:100C6000016841F010010160032000F067F80F20D7
:100C700000F006F800F024F8002010BD002002402B
:100C800070B50D4D04464FF47A712878B1FBF0F041
:100C90000A490968B1FBF0F000F0DEFA48B9102CFF
:100CA00007D200222146501E00F028F800206C6078
:100CB00070BD012070BD0000000000200C0000206D
:100CC0000C4808B5816941F001018161816901F039
:100CD00001010091C16941F08051C161C06900F01A
:100CE000805000900448416821F0E06141F080614B
:100CF000416008BD0010024000000140F0B40E4BFE
:100D00001B680C46C3F30223C3F10705042D00D969
:100D10000425191D072901D2002300E0DB1E01264E
:100D200006FA05F1491E214099409E40761E164064
:100D30003143F0BC00F0E5BC0CED00E0064900F0EA
:100D4000070208684FF6FF03184040EA0220034AF2
:100D500010430860704700000CED00E00000FA0549
:100D60002DE9F0470F46050061D0434E306800F092
:100D70000700B84209D2306820F0070038433060DD
:100D8000306800F00700B84251D128683B4C810719
:100D900012D5400703D5606840F4E06060602878B1
:100DA000000703D5606840F4605060606068A9681F
:100DB00020F0F000084360602878C00728D06868F9
:100DC000012810D02168022810D0890700292EDAC6
:100DD000616821F0030101436160FFF745FE804631
:100DE00041F288390DE021688903EFE78901EDE7D9
:100DF000FFF73AFEA0EB0801494502D90320BDE800
:100E0000F0876068696800F00C00B0EB810FEFD1EB
:100E1000306800F00700B8420BD9306820F00700B6
:100E200038433060306800F00700B84201D001203C
:100E3000E5E72878400705D56068E96820F4E060B8
:100E4000084360602878000706D56068296920F4A7
:100E5000605040EAC100606000F038F86168084AFC
:100E6000C1F30311515CC840064908600648006898
:100E7000FFF706FF0020C2E70020024000100240FA
:100E8000DE4400080C00002004000020044805494E
:100E900000684968044AC1F30221515CC8407047A8
:100EA0000C00002000100240EE44000804480549F0
:100EB00000684968044AC1F3C221515CC8407047C8
:100EC0000C00002000100240EE44000812A185B082
:100ED0000FC98DE80F0014A0144A006804905168EF
:100EE000134801F00C03042B10D0082B0ED1C1F3D2
:100EF0008343C9031DF803000AD5516804AAC1F34E
:100F00004041515C0A4A5043B0FBF1F005B07047D4
:100F100008494843FAE700000203040506070809E8
:100F20000A0B0C0D0E0F1010010200000010024001
:100F300000127A0000093D002DE9F84F040070D03E
:100F40002078C04DC00749D06868C0F381000128EF
:100F500007D06868C0F38100022809D16868C0031F
:100F600006D52868800339D560680028E7D035E0C9
:100F70006068B0F5803F0BD010B1B0F5A02F11D054
:100F8000286820F480302860286820F4802002E05F
:100F9000286840F480302860606890B1FFF764FDF5
:100FA00006460AE0286840F480202860F0E700BF89
:100FB000FFF75AFD801B642873D828688003F7D593
:100FC0000CE0FFF751FD064605E000BFFFF74CFDC2
:100FD000801B6428F0D828688003F7D420789A4EC4
:100FE00080074FF001094FF0000839D5686810F00C
:100FF0000C0F07D06868C0F38100022809D1686827
:10100000C00306D42868800714D52069012808D1B8
:1010100010E02069B0B1C6F80090FFF725FD074643
:1010200005E00AE1FFF720FDC01B0228C4D82868AC
:101030008007F7D52868616920F0F80040EAC10010
:1010400028600DE0C6F80080FFF70EFD074604E0BB
:10105000FFF70AFDC01B022823D828688007F7D4B1
:10106000207800072CD57948A169D9B1C0F8009043
:10107000FFF7FAFC074604E0FFF7F6FCC01B022866
:101080000FD8686A8007F7D571484FF4FA510068A5
:10109000B0FBF1F0009000BF0098411E0091FAD221
:1010A0000EE080E0C0F80080FFF7DEFC074604E0B9
:1010B000FFF7DAFCC01B022875D8686A8007F7D4EE
:1010C0002078400760D5E8690027C00008D4E869A7
:1010D00040F08050E861E869012700F080500090FE
:1010E0005C480168C90513D40168834641F48071E6
:1010F0000160FFF7B9FC824606E000BFFFF7B4FCD1
:10110000A0EB0A0064284ED8DBF80000C005F5D536
:10111000E06801280AD008B1052813D0286A20F019
:1011200001002862286A20F0040002E0286A40F0EA
:1011300001002862E06841F2883B98B1FFF794FC17
:1011400082460BE0286A40F004002862EEE700BF08
:10115000FFF78AFCA0EB0A0159455AD8286A800794
:10116000F6D50CE0FFF780FC824605E0FFF77CFC3B
:10117000A0EB0A0159454CD8286A8007F6D41FB164
:10118000E86920F08050E861E06988B36968C1F3DC
:101190008101022944D00228C6F8608004D0FFF7FC
:1011A00063FC044638E034E0FFF75EFC074604E0E9
:1011B000FFF75AFCC01B02282BD828688001F7D4FF
:1011C000206AB0F5803F05D16868A16820F400303E
:1011D00008436860D4E908010843696821F4741180
:1011E00008436860C6F86090FFF73EFC044606E0DE
:1011F00025E000BFFFF738FC001B022809D828684B
:101200008001F7D51BE000BFFFF72EFC001B022872
:1012100002D90320BDE8F88F28688001F4D40EE0DD
:101220000128F7D06868226A00F48031914204D125
:10123000616A00F47010884201D00120EAE70020C2
:10124000E8E70000001002400000424280044242F1
:101250000C0000200070004010B5401EB0F1807FEF
:1012600001D3012010BD4FF0E02460610F21601711
:1012700000F047FA0020A06107202061002010BD87
:1012800070B5040004D094F83D00002510B106E0CC
:10129000012070BD84F83C50204600F023F8242043
:1012A00084F83D002068C16821F40051C1602046E7
:1012B00000F098F92068016921F4904101612068EB
:1012C000416921F02A0141612068C16841F400515F
:1012D000C1602564202084F83D0084F83E00002091
:1012E00070BD000030B585B00024009401940294D4
:1012F000039400681449884224D11448816941F458
:1013000080418161816901F480410491816941F0EA
:101310000401816180690E4D00F0040004904FF4D7
:101320000070009002200190032003906946284637
:10133000FFF798FA2815CDE900046946284602947B
:10134000FFF790FA05B030BD0038014000100240B0
:10135000000801402DE9F843044690F83D001F467F
:1013600016460D4620284CD1C5B1BEB194F83C00BC
:10137000012846D0012084F83C004FF00008C4F852
:101380004080212084F83D00FFF76EFBA684814653
:10139000E684A068B0F5805F03D004E00120BDE8DA
:1013A000F883206928B12E465FF0000584F83C8060
:1013B0000EE00026FAE78021204600F06FF9A0B980
:1013C000AEB116F8010B21684860E08C401EE08445
:1013D000E08C4B464FF0000200970028EBD14FF015
:1013E0004001204600F05AF930B10320D7E735F824
:1013F000020BC0F30800E6E7202084F83D0000203F
:10140000CDE70220CBE700002DE9F04F85B00024A6
:101410002E480094019402940394816941F04001A4
:101420008161816901F040010491816941F0040109
:101430008161816901F004010491816941F0080131
:1014400081618069DFF8889000F008000490002234
:1014500040214846FFF702FBDFF878A048F2FC077E
:10146000002239465046FFF7F9FADFF86CB041F236
:101470002208002241465846FFF7F0FA4020012595
:101480000226CDE90005CDE9024669464846FFF748
:10149000E9F90320CDE90240CDE9007569465046DF
:1014A000FFF7E0F9CDE90054694658460294FFF78A
:1014B000D9F9CDF800800396CDE901546946584624
:1014C000FFF7D0F905B0BDE8F08F00000010024032
:1014D0000018014000080140000C01400B4810B505
:1014E000094901604FF4E1314160002181600C2223
:1014F000C160C0E904128161C161FFF7C1FE00282B
:1015000001D072B6FEE710BD003801401001002086
:10151000FEE7FEE7704701F0F4BE30B58FB028213A
:101520006846FEF7C4FE14210AA8FEF7C0FE01219A
:101530000804CDE900100024029402250491CDE9AD
:1015400007504FF4E01009906846FFF7F5FC08B12A
:1015500072B6FEE70F20CDE90A054FF48060CDE9B1
:101560000C4002210AA80E94FFF7FAFB002801D0D4
:1015700072B6FEE70FB030BD144910B54868144A82
:1015800010F00C03134803D0042B01D0082B09D012
:1015900002604968104AC1F30311515C0268CA40F5
:1015A000026010BD4A684B6802F470124FF00204EA
:1015B00013F4803F04EB924202D04B689B0301D5A9
:1015C000064B00E0024B5A43E2E7000000100240E5
:1015D00000127A000C000020DE44000800093D00E3
:1015E0007047000070B5044600680169E26821F4A4
:1015F0004051114301612169A068084361690843B2
:101600002168CA6841F20C639A430243CA602068A9
:101610004169A26921F44071114341611E4920686A
:10162000884202D1FFF742FC01E0FFF72FFC00EBFC
:10163000C00101EB0012606864218000B2FBF0F38E
:10164000B3FBF1F36FF018067343B2FBF0F5B2FB96
:10165000F0F605EB8305322303EB0515B5FBF1F539
:10166000B6FBF1F605F0F00505EB0615B2FBF0F65A
:10167000B2FBF0F0B0FBF1F06FF01802504306EB54
:10168000800003EB0010B0FBF1F0216800F00F00C8
:101690002844886070BD0000003801402DE9F04109
:1016A000984617460E460446069D1DE0681C1BD052
:1016B0002DB1FFF7D9F9A0EB0800A84214D9206892
:1016C000C16821F4D071C1602068416921F0010135
:1016D0004161202084F83D0084F83E00002084F819
:1016E0003C000320BDE8F0812068006836EA000075
:1016F00004D00020B842D9D00020F3E70120F9E758
:10170000FEE70907090E002804DB00F1E02080F85D
:101710000014704700F00F0000F1E02080F8141D65
:101720007047000000487047B8000020002806D02D
:101730000E4910F0FF0F03D0C0B2085C401C704788
:1017400010F47F4F04D0C0F30720085C09307047C5
:1017500010F47F0F04D0C0F30740085C11307047CD
:1017600001EB10600078193070470000F644000863
:1017700002E008C8121F08C1002AFAD1704770475A
:10178000002001E001C1121F002AFBD170470000B8
:101790002DE9F04F89B092468B460646002400E0C2
:1017A000641C305D202803D0092801D05C45F7D3A4
:1017B0004FF0FF387CB3194804F10609184F05684B
:1017C00011E0062217A12868FEF7A4FD50B9286889
:1017D00022463146801DFEF79DFD18B9296811F893
:1017E000090020B10C3538688542EAD314E0AC68B2
:1017F0008CB120216846FEF75AFD6A4659463046AC
:1018000001F012F838B16946A047CAF8000000207C
:1018100009B0BDE8F08FFFE74046F9E7A0000020DF
:10182000A40000205F5F636D645F00002DE9FC4150
:101830001F460446DDE90831DDE90A6514304060E1
:101840000060C4E90827C4E90A310A462321184682
:101850001C3401F0A7FCD4E903014218D4E90101CA
:10186000104B121F01F05AFB44F81A0B002004F829
:1018700001690D4A04F8036BE4E8020544F81059C5
:1018800001C404F83C0B01C444F8740900902346D9
:101890000190194604F1440002F04AF90020BDE825
:1018A000FC810000293700084739000810B5029C68
:1018B00024F001044472C0E907120021C0E9093193
:1018C00014304060006010BD143001F0D0BB70B522
:1018D0000546FEF749FC296F044609B128468847AA
:1018E0002046BDE87040FEF743BC000010B51BA0C9
:1018F00001F076FB1C4C21781CA001F071FB2078D4
:10190000C00702D01FA001F06BFB2078800702D532
:101910001FA001F065FB2078400702D51FA001F051
:101920005FFB2078000702D520A001F059FB20784A
:10193000C00602D520A001F053FB2078000607D591
:1019400009480F300168BDE810401DA001F048BBF8
:10195000BDE810401EA001F043BB0000627573207B
:101960006661756C743A0A0029ED00E05343425FEA
:10197000434653525F424653523A307825303258EC
:1019800020000000494255534552522000000000FB
:10199000505245434953455252200000494D505240
:1019A000454349534552522000000000554E5354C0
:1019B0004B4552522000000053544B4552522000D8
:1019C0005343422D3E424641523A253038580A0090
:1019D0000A00000010B500F053FB002010BD10B548
:1019E00000F012FC002010BD104810B5416991F8BC
:1019F0002110890703D40E490020087014E0016902
:101A000029B14FF480720A48FEF768FC0CE000F040
:101A100009FF08B107A100E008A10548FEF771FC25
:101A200008A10348FEF74EFC014810BDA0000020AD
:101A3000641700206D7368200000000066696E73F3
:101A4000682000003E0000000349496911F8212F79
:101A500060F341020A707047A0000020014AC2E909
:101A600000017047A00000207CB516491648FFF71A
:101A7000F5FF7821012001F023F8144C6061D0B10A
:101A80000A211520CDE900014FF48063002210499E
:101A900010A001F024FE054600231A460FA160693C
:101AA00001F0B0FC0120FFF7CFFF15B1284601F08F
:101AB00013FF00207CBD0BA001F092FA4FF0FF3025
:101AC0007CBD0000044B0008084A0008A00000206C
:101AD000FD1A0008747368656C6C00007368727896
:101AE000000000006E6F206D656D6F727920666F6B
:101AF00072207368656C6C0A00000000984D68697C
:101B000010F8211F41F001010170FFF76DFF01F096
:101B100067FA002601F0C6F80400FBD41B2C07D09E
:101B2000686990F82010012907D002290ED017E02B
:101B30006969012081F82000ECE75B2C02D080F875
:101B400020600DE0022180F82010E3E780F820609B
:101B5000412CDFD0422CDDD0442C38D0432C43D054
:101B6000002CD7D0FF2CD5D0092C4ED07F2C75D08F
:101B7000082C73D00D2C70D00A2CFCD0B0F8721049
:101B8000502901D3A0F87260B0F87430B0F8721028
:101B90008B427DD2CA1A00F1220123301944184425
:101BA00001F0E6FA6869B0F8741022300C546869E4
:101BB00090F82110C90706D0B0F874102230014403
:101BC00068A001F00DFA6869B0F87440A5E0B0F8BB
:101BD000740000289ED064A001F002FA686930F811
:101BE000741F491E018095E7B0F87410B0F8722098
:101BF00091428FD22230095C5CA001F0F1F9696951
:101C000031F8740F401C088084E7002403E056A0DC
:101C100001F0E6F9641C6869B0F87400A042F6DCD3
:101C20006C6953A0223401F0DBF900F0FBFD0128C0
:101C300002D1204600F032FDFFF7D6FE01462246D3
:101C40004CA001F0CDF968692230FEF753FB6969B9
:101C500021F8720F48805DE700E03DE0B0F87420A5
:101C6000002AC0D0B0F87210521E491E89B293B239
:101C7000A0F87210A0F87430994224D9CA1A00F161
:101C8000230122301944184401F072FA686900E017
:101C900049E0B0F8721022300E546869B0F8741040
:101CA0002230014435A001F09BF96869B0F8744016
:101CB00003E02DA001F094F9641C6869B0F872008B
:101CC000A04290DBF5E72FA001F08AF96869B0F82F
:101CD000721022300E541DE700F0A4FD01280DD132
:101CE000686990F82100C00702D021A001F078F9BE
:101CF0006869B0F87210223000F026FDFFF774FE1C
:101D000001F06EF9686950212230FEF7D0FA686957
:101D100022E015A001F064F9641C6869B0F8720053
:101D2000A042F6DC0AE022300C54686990F82100E9
:101D3000C00703D021460DA001F052F96869B0F840
:101D40007210491C89B2A0F87210B0F87420521CAD
:101D5000A0F874205029BED320F8726F4680D9E6CF
:101D6000A00000202573000008000000256300008B
:101D70000A00000025732573000000000825732069
:101D8000200800000820080010B5124C20688007C9
:101D900002D511A001F024F92068400011D50D48AA
:101DA000C01E007808B1FFF7A1FD0A48001F0078A7
:101DB00008B100F007FC0748801E008808B102F057
:101DC00021FB2068002804DABDE8104008A001F0DB
:101DD00007B910BD2CED00E06661696C6564207682
:101DE0006563746F722066657463680A00000000A2
:101DF0006465627567206576656E740A0000000090
:101E000010B502A001F0ECF8002010BD48656C6C24
:101E10006F2052542D546872656164210A000000DD
:101E2000094D0024142001F00BFD641CA4B2192CF0
:101E300008D01E2CF6D10024012240212846FEF7AE
:101E40000DFEEFE70022F8E70018014070B50CA086
:101E500001F0C6F80F48104D04680BE002220FA1F4
:101E60002068FEF757FA20B1D4E900120CA001F067
:101E7000B7F80C3428688442F0D3002070BD00000D
:101E80002D2D46756E6374696F6E204C6973743ABC
:101E90000A000000A0000020A40000205F5F0000F6
:101EA000252D313673202D2D2025730A00000000CA
:101EB0002DE9F04104461E4617460D46084601F03E
:101EC000DFF9001D2060257200206760C4E903600F
:101ED000BDE8F0812DE9F0410D4600212961E96856
:101EE00091B1297A81B12E6888B10446FEF73CF998
:101EF0000146A4F10C002A7A007A20F0800090427A
:101F000009D00846FEF734F90020BDE8F0813446D8
:101F1000FEF72AF90146686800272468B44201D117
:101F2000002404E010C0EA687F1CBA42F5D10846DC
:101F3000FEF71EF920462F61E7E700002DE9F0418A
:101F400096B000262FA408230CAA052106A8FFF7A7
:101F5000AFFF08208046014622462CA001F040F841
:101F6000404600F0C9FC32A001F03AF806A930461C
:101F7000FFF7B0FF064600253BE00CA850F82540CF
:101F80000C3CFEF7F1F80146207A9DF8202020F065
:101F900080009042084602D0FEF7EAF828E0FEF7FB
:101FA000E7F8606904F11407B842384613D001F02D
:101FB00043F8228C618C0091CDE901202346082250
:101FC000414622A001F00CF8384602F0E9F925A0BC
:101FD00001F006F80CE001F02FF8218C628CCDE9BD
:101FE000002102902346082241461FA000F0F8FF7E
:101FF0006D1C0A98A842C0DC002EB7D116B0002094
:10200000BDE8F0816D61696C626F7800252D2A2E24
:102010007320656E7472792073697A6520737573A5
:1020200070656E64207468726561640A0000000067
:10203000202D2D2D2D20202D2D2D2D202D2D2D2D04
:102040002D2D2D2D2D2D2D2D2D2D0A00252D2A2E1A
:102050002A73202530346420202530346420256400
:102060003A0000000A000000252D2A2E2A732025A0
:102070003034642020253034642025640A000000B8
:1020800010B5074C07A0E16800F0AAFF0AA021697B
:1020900000F0A6FF6169BDE810400CA000F0A0BFF1
:1020A00028000020746F74616C206D656D6F72790B
:1020B0003A2025640A00000075736564206D656D23
:1020C0006F7279203A2025640A0000006D617869FA
:1020D0006D756D20616C6C6F6361746564206D65F6
:1020E0006D6F72793A2025640A0000002DE9F041F5
:1020F00094B000262CA408230BAA022105A8FFF700
:10210000D7FE08208046014622462AA000F068FF3C
:10211000404600F0F1FB2EA000F062FF05A930461A
:10212000FFF7D8FE0646002535E00BA850F82540FD
:102130000C3CFEF719F8217A9DF81C2021F0800153
:10214000914202D0FEF714F824E0FEF711F860691E
:1021500004F11407B842384611D000F06DFFA18B8E
:10216000CDE900102346082241461FA000F038FFA9
:10217000384602F015F915A000F032FF0AE000F031
:102180005BFFA18BCDE900102346082241461AA02F
:1021900000F026FF6D1C0998A842C6DC002EBDD1B8
:1021A00014B00020BDE8F08173656D6170686F72D6
:1021B00065000000252D2A2E7320762020207375BF
:1021C0007370656E64207468726561640A00000053
:1021D000202D2D2D202D2D2D2D2D2D2D2D2D2D2D49
:1021E0002D2D2D0A00000000252D2A2E2A732025D2
:1021F0003033642025643A00252D2A2E2A732025A9
:102200003033642025640A002DE9F041B4B0002683
:102210003CA408232CAA012126A8FFF749FE082088
:10222000804601462246394800F0DAFE404600F07A
:1022300063FB37A000F0D4FE26A93046FFF74AFE24
:102240000646002554E02CA850F825400C3CFDF72C
:102250008BFF0746207A9DF8A01020F0800088426E
:1022600003D03846FDF784FF41E07822214607A8D5
:10227000FEF704F83846FDF77BFF94F83500009030
:1022800023460822414632A000F0AAFE94F834000A
:1022900000F00F00012807D0022807D040B1042821
:1022A00008D0032808D00AE02CA006E02EA004E005
:1022B00030A002E032A000E034A000F091FEA06A5D
:1022C000014600E0401C0278232AFBD0E26A401A53
:1022D000101A64235843B0FBF2F3276B206CCDE94E
:1022E0000007E069081A81182BA000F079FE6D1C28
:1022F0002A98A842A7DC002E9ED134B00020BDE869
:10230000F08100007468726561640000A0460008F6
:10231000202D2D2D20202D2D2D2D2D2D2D202D2D21
:102320002D2D2D2D2D2D2D2D202D2D2D2D2D2D2DEA
:102330002D2D2D20202D2D2D2D2D2D20202D2D2D01
:102340002D2D2D2D2D2D2D202D2D2D0A00000000A1
:10235000252D2A2E2A7320253364200020726561E2
:1023600064792020000000002073757370656E642E
:102370000000000020696E69742020200000000029
:1023800020636C6F73652020000000002072756E62
:102390006E696E67000000002030782530387820A4
:1023A00030782530387820202020253032642525CB
:1023B00020202030782530387820253033640A00FA
:1023C000F0B593B0002626A408230BAA0A2104A87E
:1023D000FFF76EFD08272246394623A000F000FED5
:1023E000384600F089FA2AA000F0FAFD04A9304628
:1023F000FFF770FD0646002524E00BA850F82540A5
:102400000C3CFDF7B1FE217A9DF8182021F08001E7
:10241000914202D0FDF7ACFE13E0FDF7A9FED4E92E
:102420000901CDE9000123460822394621A000F028
:10243000D7FD607AC00701D024A000E026A000F0FC
:10244000CFFD6D1C0898A842D7DC002ECED101F03C
:10245000D5FA014624A000F0C3FD13B00020F0BD62
:1024600074696D6572000000252D2A2E732020707E
:102470006572696F64696320202074696D656F758A
:102480007420202020202020666C61670A00000054
:10249000202D2D2D2D2D2D2D2D2D2D202D2D2D2D86
:1024A0002D2D2D2D2D2D202D2D2D2D2D2D2D2D2D69
:1024B0002D2D0A00252D2A2E2A732030782530381C
:1024C0007820307825303878200000006163746906
:1024D00076617465640A000064656163746976619D
:1024E0007465640A0000000063757272656E742082
:1024F0007469636B3A3078253038780A0000000040
:10250000FEF782FF20481F494FF4804201601F49B7
:10251000416000218160C0E9031241618161C161B4
:102520000162FEF7A7FA08B172B6FEE74FF47A70BF
:1025300001F086F916A000F053FD1A4C00224FF46A
:1025400000412046FEF78AFA0022A1141648FEF741
:1025500085FA002280212046FEF780FA4FF4C870E9
:1025600001F06EF94FF07C50FEF724F901F0AEFC5B
:1025700047F23054204601F063F90CA000F030FD22
:10258000F8E7000000580040BC000020A0860100D1
:10259000486172647761726520496E6974204F4B9F
:1025A000210D0A0000080140000C01402E2E0D0AEA
:1025B0000000000010B500F09FFABDE81040FFF7E2
:1025C0009FBF000010B518A000F00AFD1B4C217839
:1025D0001BA000F005FD2078C00702D01EA000F06F
:1025E000FFFC2078800702D51EA000F0F9FC2078BF
:1025F000000702D51EA000F0F3FC2078C00602D52B
:102600001EA000F0EDFC2078000607D50B480C302A
:102610000168BDE810401CA000F0E2BCBDE810401D
:102620001D4800F0DDBC00006D656D206D616E61C0
:102630006765206661756C743A0A000028ED00E059
:102640005343425F434653525F4D4653523A3078AC
:1026500025303258200000004941434356494F4C31
:10266000200000004441434356494F4C20000000E5
:102670004D554E53544B4552522000004D53544B30
:1026800045525220000000005343422D3E4D4D4123
:10269000523A253038580A00744400082DE9F047B2
:1026A0008046002500782C4618B12248224F066843
:1026B00031E0BDE8F0470021084600F077B8062277
:1026C0001EA13068FDF726FE20BB306800F1060928
:1026D0004046FDF70FFE024649464046FDF71AFE0A
:1026E000C0B925B94C464846FDF704FE05464946A3
:1026F000204601E0401C491C02781AB10B780BB14E
:102700009A42F7D0001BA84200DA054649460DA0C0
:1027100000F066FC0C3638688642D0D3002C06D018
:102720002A4621464046BDE8F04700F039BFBDE8E3
:10273000F0870000A0000020A40000205F5F636D10
:10274000645F000025730A0038B5044601E0491EA5
:10275000641C59B120782028F9D00928F7D06A469E
:102760002046FFF715F818B1204604E0002038BDD8
:10277000009838BD401C0178202901D00029F9D1EA
:1027800000210170214603A000F02AFC4FF0FF3029
:1027900038BD000025733A20636F6D6D616E642053
:1027A0006E6F7420666F756E642E0A0070B50EA091
:1027B00000F016FC1348144D04680CE0062213A127
:1027C0002068FDF7A7FD28B9D4E9001211A0891DE2
:1027D00000F006FC0C3428688442EFD310A000F00F
:1027E000FFFB002070BD000052542D5468726561DB
:1027F00064207368656C6C20636F6D6D616E6473CB
:102800003A0A0000A0000020A40000205F5F636D72
:10281000645F0000252D313673202D2025730A00BA
:102820000A0000000120704770B5002315461C46C1
:102830001A464BE000F8012B5B1C0678202E01D0D5
:10284000092E01D18B42F5D3082C11D321A000F021
:10285000C7FB002606E000BF55F8261025A000F0B3
:10286000BFFB761CA642F7D321A000F0B9FB2FE0F6
:102870008B422DD2F6B2222E03D045F82400641CE0
:102880001BE0401C45F824005B1C641C08E05C2E27
:1028900004D14678222E01D1401C5B1C401C5B1CDD
:1028A0000678222E01D08B42F1D38B4210D200F851
:1028B000012B5B1C0AE0401C5B1C0678202E03D019
:1028C000092E01D08B42F6D38B4201D28B42B4D376
:1028D000204670BD546F6F206D616E792061726704
:1028E000732021205765206F6E6C79205573653AEF
:1028F0000A0000002573200010B5044602E003A082
:1029000000F06EFB641EFAD210BD00002D00000026
:1029100030B5134943680A68134402F10804984229
:102920000DD05D885DB94D68AB4208D08D689D4281
:1029300000D188605D6845605B68851A1D518368B9
:10294000134483420BD05D88002D08D18D688542E9
:1029500000D18B60416859604068991A015130BDBF
:10296000280000202DE9F04F85B09946DDE90EA53D
:10297000109CAB46630602D5DFF814C103E0DFF814
:1029800010C1ACF1110CE30601D524F00104E307FA
:1029900001D0302300E0202300260493A3070BD5A9
:1029A000002A02DA2D26524206E0630701D52B26C3
:1029B00002E0230700D520260023EE4622B930226C
:1029C0008DF8002001230CE0B9F10A0F14D002F0B9
:1029D0000F0812091CF808800EF803805B1C002AFF
:1029E000F2D1AB4200DD1D46AAEB050214F0110F37
:1029F0004FF0200708D015E00A27B2FBF7F807FBD5
:102A00001828B2FBF7F2E5E73EB1002A05DD521EB9
:102A100003E0884200D20770401CB2F1000CA2F122
:102A20000102F6DC26B1884200D20670401C521E1C
:102A3000E40605D508E0884201D2049C0470401CDD
:102A4000141EA2F10102F6DC30242E466D1E9E42B9
:102A50000ADD884200D20470401CF6E7884201D2A9
:102A6000E55C0570401C00E074461D1EA3F10103E7
:102A700007DDBBF1000FF1D103E0884200D20770FF
:102A8000401C131EA2F10102F7DC05B0BDE8F08F77
:102A9000074600081CB514210A20CDE900014FF4B7
:102AA00000730022034904A000F019FEBDE81C4099
:102AB00000F012BFB52500086D61696E00000000CE
:102AC00070B54843044600F0DBFA050003D0224607
:102AD000002100F067FB284670BD000070B5044C73
:102AE000044D02E020688047241DAC42FAD370BD3B
:102AF000F4490008FC49000870B5044C044D02E09C
:102B000020688047241DAC42FAD370BDFC49000800
:102B1000044A000810B5FDF727FB044A5188491CF8
:102B20005180BDE81040FDF723BB0000800000206D
:102B300010B5FDF719FB0B4C6188491E09B2618085
:102B400000290ADC00216180FDF712FB6068002883
:102B500007D0BDE8104000F0DDBBBDE81040FDF738
:102B600007BB10BD8000002070B5002833D01A4D7F
:102B7000296888422FD3696888422CD2A0F10C04BE
:102B80004FF0FF31154800F074FC60884FF4F556A3
:102B900010B12088B04208D011A000F021FA23889B
:102BA0006288214615A000F01BFA00206080268074
:102BB000A868844200D2AC6029686068611A401A33
:102BC0002969081A28612046FFF7A2FEBDE8704077
:102BD000024800F029BC70BD2800002044160020E7
:102BE000746F206672656520612062616420646193
:102BF000746120626C6F636B3A0A00006D656D3A18
:102C0000203078253038782C207573656420666C08
:102C100061673A2025642C206D6167696320636FCA
:102C200064653A203078253034780A0000487047CF
:102C3000CC03002000487047CC13002010B5FEF7ED
:102C40000DF8FEF76AFCFEF797FC13484FF47A7113
:102C50000068B0FBF1F0401EB0F1807F0DD24FF064
:102C6000E0210E4A4861F02082F8140D0C4AFF2042
:102C700010700020886107200861FFF72FFFFFF721
:102C8000D9FF0446FFF7D2FF214600F09DFCBDE8C6
:102C90001040FEF723BC00000C0000200FE000E015
:102CA00023ED00E038B50B484FF0FF3400680168B1
:102CB000C943890602D44068C4B209E00168C94327
:102CC000090702D40168406800900A2000F0B8FDAE
:102CD000E0B238BD10010020F8B506460D200F49BE
:102CE0008DF80000002481F83C40304600F050FC94
:102CF00005460FE0305D0A2805D101231A466946D2
:102D00000648FEF727FB012331191A460348FEF750
:102D100021FB641CAC42EDD3F8BD00001001002083
:102D200070B50546041D2D48016819B1284688472D
:102D3000002851D02AA0E16B00F052F92CA0216AA2
:102D400000F04EF92EA0616A00F04AF930A0A16AA5
:102D500000F046F932A0E16A00F042F934A021689F
:102D600000F03EF936A0616800F03AF938A0A16899
:102D700000F036F93AA0E16800F032F93CA0216990
:102D800000F02EF93EA0616900F02AF940A0A16987
:102D900000F026F942A0E16900F022F944A0216B7D
:102DA00000F01EF946A0616B00F01AF948A0A16B73
:102DB00000F016F92878400708D500F067FD0146B5
:102DC00047A000F00DF9FFF71FFA02E04CA000F059
:102DD00007F9FEF7D9FFFEE770BD000014000020E0
:102DE0007073723A203078253038780A000000007D
:102DF0007230303A203078253038780A00000000F0
:102E00007230313A203078253038780A00000000DE
:102E10007230323A203078253038780A00000000CD
:102E20007230333A203078253038780A00000000BC
:102E30007230343A203078253038780A00000000AB
:102E40007230353A203078253038780A000000009A
:102E50007230363A203078253038780A0000000089
:102E60007230373A203078253038780A0000000078
:102E70007230383A203078253038780A0000000067
:102E80007230393A203078253038780A0000000056
:102E90007231303A203078253038780A000000004E
:102EA0007231313A203078253038780A000000003D
:102EB0007231323A203078253038780A000000002C
:102EC000206C723A203078253038780A00000000F3
:102ED0002070633A203078253038780A00000000EE
:102EE00068617264206661756C74206F6E2074680E
:102EF000726561643A2025730D0A0D0A0000000016
:102F000068617264206661756C74206F6E20686100
:102F10006E646C65720D0A0D0A00000070B50446FF
:102F2000121D22F007000022094D403840F82250BF
:102F3000521C102AFAD301620021416281624FF0D3
:102F4000807200F13005C263C16285E81A0070BD6D
:102F5000EFBEADDE10B5FDF707F9044A1178491C44
:102F60001170BDE81040FDF703B9000024000020F7
:102F700010B5FDF7F9F8044A1178491E1170BDE843
:102F80001040FDF7F5B80000240000202DE9F041C5
:102F9000064614460D46084600F0B4FC05F1140739
:102FA000B4B1012C18D134680EE000BF95F835108B
:102FB00094F82120A4F11400914204D2394614302F
:102FC00000F033F802E02468B442EFD1B44203D1F8
:102FD0003946304600F029F80020BDE8F0810000B5
:102FE0000FB4FF2110B503AB0448029A00F00EFEA7
:102FF0000248FFF771FE10BC5DF814FB4415002079
:103000000268516002680A600160486070470268A7
:10301000516002680A600160486070470268516050
:1030200002680A6001604860704742681160426847
:103030004A604160086070470246002100E0491C78
:1030400000689042FBD108467047D0E900124A6000
:10305000D0E900121160406000607047D0E90012B2
:103060004A60D0E900121160406000607047D0E90A
:1030700000124A60D0E900121160406000607047A1
:103080002DE9F047002807D0374CC01C20F003067C
:10309000E068864202D90020BDE8F0870C2E00D2FD
:1030A0000C264FF0FF31314800F0E3F9D4F808C0A6
:1030B0002168E768ACEB0100BA1B4FE00D186B8884
:1030C000E3BB6B681B1A0C3BB34246D36A6806F13C
:1030D0001803121A0C3A4FF001094FF4F55A9A42AC
:1030E0002DD383190C33CA184FF00008A2F800A0A2
:1030F000A2F80280D5F80480C2E901806B60A5F8CF
:10310000029050680C37B84202D001F10802835097
:10311000206930440C3020616269824200D26061D3
:10312000A5F800A0654512D1A06842887AB162680E
:1031300090420CD040680844A060F6E70DE0A5F886
:10314000029068686A1A801A22691044E3E7074807
:1031500000F06AF905F10C009EE768688242ADD87C
:10316000024800F061F996E728000020441600208C
:1031700010B50346994211D28C189C420ED9811881
:1031800004E000BF14F8013D01F8013D521EF9D2E0
:1031900010BD00BF11F8014B03F8014B521EF9D2CC
:1031A00010BD000010B50346CCB2042A1AD3810723
:1031B00018D1194644EA042343EA034306E008C150
:1031C000103A08C141F8083B41F8043C102AF6D2F5
:1031D00001E008C1121F042AFBD20B4602E000BF27
:1031E00003F8014B521EFBD210BD2DE9F0410F46F2
:1031F000064600F045F80546C068FFF741FF0400A9
:1032000019D00021EA68FFF7CDFF26720020607216
:1032100008223946204600F0C3F9FCF7A5FF064610
:1032200004F10C01281DFFF7EBFE3046FCF7A0FF70
:103230002046BDE8F0810020FBE770B50446002081
:103240002072FCF791FF054604F10C00FFF7FDFE2C
:103250002846FCF78DFF2046BDE87040FFF784BC90
:1032600070B5044600202072FCF77EFF054604F18D
:103270000C00FFF7EAFE2846BDE87040FCF778BF77
:10328000074A002102EB01131B78834202D102EBB3
:1032900001107047491C0429F4DB0020704700002E
:1032A000400000202DE9F041044616460D46084630
:1032B000FFF7E6FF0746FFF72DFC381D796800E0B1
:1032C00009688142FCD1FFF733FC45F08000207291
:1032D00008223146204600F063F9FCF745FF054619
:1032E00004F10C01381DFFF78BFE2846BDE8F041C4
:1032F000FCF73EBF007A000601D501207047002090
:10330000704710B5FFF726FE00F07EFBBDE81040C9
:10331000FFF72EBE70B5FCF727FF114C05466088FD
:10332000B0B9A068FEF702FA0E49401E626851F873
:103330003010143991420BD020700B486160007836
:1033400001F11C01002802F11C0006D0FCF713FF5C
:103350002846BDE87040FCF70BBFFCF70CFFF7E711
:1033600080000020641600202400002010B50446D0
:10337000FCF7FAFE024694F834000E4920F00F00E4
:10338000401C84F8340094F8350001EBC00104F1CE
:1033900014004B6818604B68A3614860064861617F
:1033A000A16B836819438160BDE810401046FCF7AB
:1033B000DFBE0000641600208000002010B5044627
:1033C000FCF7D2FE04F11401D1E900235360D1E9E6
:1033D00000231A60A161616194F83520074951F812
:1033E000323001EBC2018B4204D10549A36B8A68DC
:1033F0009A438A60BDE81040FCF7BABE641600200C
:10340000800000202DE9F04116460A461F46054679
:103410000221FFF747FF05F11404AC616C61AE8334
:103420006F720020BDE8F08170B50446FCF79CFE89
:103430000546606904F11401884208D0143800F090
:1034400006FA2846FCF794FEFFF764FF09E0A08B1C
:103450004FF6FF71884206D2401CA0832846FCF735
:1034600087FE002070BD2846FCF782FE6FF0020048
:1034700070BD73B50546FCF777FE0646A88B28B1EC
:10348000401EA8833046FCF773FE21E0019808B384
:1034900000F0FCF90446002020636A7A214605F119
:1034A0001400FFF773FD0198002809DD04F14400C2
:1034B00001AA0021054600F003FB284600F04CFB62
:1034C0003046FCF755FEFFF725FF206B002800D1A2
:1034D00000207CBD3046FCF74BFE6FF001007CBD48
:1034E00008B509A0FFF77CFD0AA0FFF779FD12A03F
:1034F000009005230122032112A0FFF771FDBDE812
:10350000084018A0FFF76CBD0A205C207C202F0A21
:10351000000000002D205254202D20202020205477
:103520006872656164204F7065726174696E6720AE
:1035300053797374656D0A00466562203135203217
:1035400030323200202F207C205C202020202025BB
:10355000642E25642E2564206275696C64202573B1
:103560000A0000002032303036202D203230323038
:1035700020436F7079726967687420627920727471
:103580002D746872656164207465616D0A000000C5
:10359000014600E0491C0A78002AFBD1081A70474E
:1035A00010B5002A07D0034611F8014B03F8014B70
:1035B0002CB1521EF8D110BD03F8011B00E0002110
:1035C000521EF9D110BD00000A46C11C10B522F0F0
:1035D000030321F00301182B20D9A3F118048C4216
:1035E0001CD3114C581A18382160E0604FF4F55282
:1035F0000A8000230C30C1E901034B804B68194459
:1036000061600A8001224A8048608860002307A127
:103610000848FFF7F7FE2068A06010BD0146BDE82E
:10362000104005A0FFF7DCBC280000206865617031
:1036300000000000441600206D656D20696E6974FD
:103640002C206572726F7220626567696E206164FA
:10365000647265737320307825782C20616E642045
:10366000656E6420616464726573732030782578B8
:103670000A00000010B50A4900230A4C4B80184686
:1036800004EBC002401C526012602028F8DB1F20AF
:10369000087003484B600C308B604060006010BDC8
:1036A000800000206416002010B5074CA068FEF7CB
:1036B0003DF80649401E51F8300014386060BDE8FE
:1036C00010401C30FCF785BD8000002064160020EF
:1036D00001484060006070479800002070472DE965
:1036E000FF478946DDE90C76824601461D46904635
:1036F0000120FFF77AFD041E0DD02846FFF7C0FC1D
:1037000060B103968DE8A10043464A4651462046E3
:10371000FEF78CF8204604B0BDE8F0872046FFF79E
:103720008CFD0020F7E7000070B514480468FCF732
:103730001BFD05462046FEF7CAF82046FFF73EFE71
:10374000042084F8340004F1440000F0DDF9204640
:10375000FFF7D0FD01280CD004F114010848FFF751
:1037600056FC00BFFFF7D6FD2846BDE87040FCF7C9
:10377000FFBC2046FFF774FDF4E700008400002042
:103780008C00002000F002F8FCE700002DE97040FA
:10379000FCF7EAFC05460F480168814214D0016835
:1037A000A1F11404D1E900024260D1E900021060E5
:1037B000496009604869FFF7D7F92046FFF73DFDEA
:1037C0002846FCF7D5FCE3E72846BDE87040FCF747
:1037D000CFBC00008C0000201FB5202308481F220A
:1037E000D9008DE80F000023064A07A1783800F0C1
:1037F0000FF804B00248BDE81040783800F06CB80B
:1038000044140020853700087469646C650000006A
:103810002DE9FF5F92460EAA0C4692E8E0010A46A7
:10382000994683460121FFF73DFD8DE8E0014B46B7
:10383000524621465846FDF7F9FF04B0BDE8F09F17
:1038400010B500F0C1F8BDE8104000F025B870B523
:10385000044690F8340000F00F00022802D04FF028
:10386000FF3070BDFCF780FC054604F11400FFF743
:10387000F5FB04F1440000F0B1F92846FCF778FCB0
:103880002046FFF773FD002070BD0000014800686E
:103890007047000084000020F1B5FCF765FC054688
:1038A0000C480468204600F02DF804F144006A46F4
:1038B0000021064600F004F9304600F04DF9284694
:1038C000FCF756FCFFF726FD206B801C00D120631F
:1038D0000020F8BD8400002010B590F836100122B9
:1038E00080F835108A400221826380F83410FFF797
:1038F000AEFF0348006808B1FFF70CFD002010BDC3
:103900008400002070B5044690F8340000F00F00E9
:10391000012802D04FF0FF3070BDFCF725FC0546B2
:103920002046FFF74BFD94F8340020F00F00801C78
:1039300084F8340004F1440000F050F92846FCF704
:1039400017FC002070BD10B504466FF00100206325
:1039500004F11400FFF782FB2046FFF707FDBDE8E6
:103960001040FFF7D7BC000070B5FCF7FDFB064622
:103970001348046894F8340000F00F00012819D1AE
:10398000D4E90501884215D004F114000546FFF77B
:1039900065FB94F835000B4901EBC00041680D60F0
:1039A00041686960456028603046FCF7E1FBFFF73D
:1039B000B1FC02E03046FCF7DBFB002070BD0000EC
:1039C0008400002064160020002802DA4FF0FF3047
:1039D00070474FF47A7190FBF1F290FBF1F301FB29
:1039E000130000EB40034A43C3EBC0104B1E03EB34
:1039F000C00090FBF1F010447047000001480068DF
:103A00007047000010000020094810B50168491CEB
:103A10000160FFF73BFF016C491E016403D1C16BDC
:103A20000164FFF7A1FFBDE8104000F003B80000FB
:103A3000100000202DE9FC41CDF804D0CDF800D0D5
:103A4000FFF7DCFF0646FCF78FFB07461B4D2DE01A
:103A500060696FF00041301A143C884229D2204638
:103A6000FDF732FF607A810702D420F00100607216
:103A700004F1140188466846FFF7D0FAD4E907102C
:103A80008847FFF7BBFF06460098694688420DD07D
:103A90004046FFF7ECFA607A810707D5C10705D0E9
:103AA00020F001006072204600F056F82C68AC420D
:103AB000CED13846FCF75CFBBDE8FC8198000020C5
:103AC00070B515460E460446FCF74EFB052E17D280
:103AD000DFE806F00503080C1100616A0FE02968B1
:103AE00061620DE0617A21F0020102E0617A41F049
:103AF0000201617204E0617AC90700D001212960E6
:103B0000FCF736FB002070BD70B50446FCF72CFBBB
:103B100005462046FDF7D8FE607A20F0010060726D
:103B20002846FCF725FB2046FFF79AFB002070BDD6
:103B30002DE9F8439046DDE908450A461F4606464A
:103B40000A21FFF7AFFB23463A464146304600952F
:103B5000FDF7ACFEBDE8F8832DE9F8430446FCF719
:103B600003FB80462046FDF7AFFE607A20F001009F
:103B70006072FFF743FF616A174A4318A36200208F
:103B8000009202EBC002694656686FF000475DF88C
:103B900020200AE01268A2EBC0056D699D4202D0A8
:103BA000ED1ABD4203D341F82020B242F2D10A48B7
:103BB000001F0168491C016004F114010098FFF71F
:103BC0002DFA607A40F0010060724046FCF7D0FAAE
:103BD0000020BDE8F88300009800002070B504467E
:103BE000407AC0070ED0FCF7BFFA05462046FDF725
:103BF0006BFE607A20F0010060722846FCF7B8FA8C
:103C0000002070BD4FF0FF3070BD00002DE9FF4F68
:103C10008946044600EB090783B080464FF0FF3A1F
:103C20004FF0200BA74202D25746C8F1FF390BE1F3
:103C3000252803D0BC4200D2207080E000260599E0
:103C4000491C059108782D2811D02B2812D0202846
:103C500013D0232814D0302815D00A785546303A8E
:103C60000A2A13D205A800F0B3FB05461AE046F075
:103C70001006E4E746F00406E1E746F00806DEE752
:103C800046F02006DBE746F00106D8E72A2809D1EE
:103C90000698491C059120C80690002D02DA6D4255
:103CA00046F010060598D44601782E2918D1401CFC
:103CB00005900178A1F130020A2A04D205A800F08B
:103CC00087FB844607E02A2908D1401C0590069806
:103CD00050F804CB0690BCF1000F01DA4FF0000C55
:103CE000059A00201178682901D06C2902D1521C54
:103CF0000846059211780A236F2974D00CDC6329D9
:103D00001FD004DC25296FD058290DD184E0642907
:103D100001D0692908D183E0702966D073292CD09D
:103D200075297FD0782979D0BC4201D22520207016
:103D30000598641C0178E9B3BC4200D22170641C70
:103D40007FE0F00608D458466D1E002D04DDBC420D
:103D500000D22070641CF7E70698BC4210F8041BE0
:103D6000069000D22170584602E0BC4200D220707A
:103D7000641C6D1E002DF8DC63E0069802C80690F6
:103D800001B941A1002000E0401CA84202D00A5C19
:103D9000002AF9D1BCF1000F02DD604500DD60466C
:103DA000F2060BD45A462B466D1E834206DDBC42FA
:103DB00002D200E054E02270641CF4E7002206E026
:103DC000BC4201D20B782370491C521C641C8242F5
:103DD000F6DB5A4629466D1E814232DDBC4200D2D6
:103DE0002270641CF6E715E010E0681C02D108257B
:103DF00046F00106CDE9005C06980296102304C83F
:103E000006903946204619E00CE007E0BC4296D205
:103E1000252011E7082305E046F04006102301E0C5
:103E200046F002066C2801D068281CD0069804C809
:103E30000690CDE9005C394620460296FEF792FDD9
:103E400004460598401C05900598007800287FF4EA
:103E5000EFAEB9F1000F11D0BC420DD220700DE0D1
:103E6000401E0590EDE7069830F8041B06908AB2D4
:103E7000B007DED512B2DCE707F8010C07B0A4EBFF
:103E80000800BDE8F08F0000284E554C4C2900007A
:103E900000207047002070470020704700207047C6
:103EA00010B5FCF761F9FEF7C9FEFFF719FBFFF744
:103EB0000FFCFFF7DFFBFEF7EDFDFFF70FFCFFF751
:103EC0008BFCFFF7F1FB002010BD00001FB5102296
:103ED0000848642351018DE80F000023064A07A11A
:103EE0007838FFF795FC03487838FFF7F5FC04B005
:103EF000002010BDCC010020211E00086C65645F0D
:103F00007468726561640000FEB50022009201923F
:103F100014460292022801DA30A002E00A2803DDEA
:103F200034A0FFF75DF8FEBD49686846FCF7E9F983
:103F30006846FCF7FEF90546014634A0FFF750F845
:103F40002846FCF789FA0022334BFCF7FFF9FCF70F
:103F5000C0FAFCF7ABFA1022FCF767FA2F4A304B95
:103F6000FCF7F4F9FCF789FA2E4D86B201221021F4
:103F70002846FCF773FD002204212846FCF76EFD5D
:103F800000BF00BF06FA04F0000401D5012200E0E2
:103F9000002240212846FCF761FD00BF00BF00223F
:103FA00020212846FCF75AFD00BF00BF0122202136
:103FB0002846FCF753FD00BF00BF641CE4B2102C80
:103FC000E0D300BF00BF002210212846FCF746FDC9
:103FD000012204212846FCF741FDFEBD4D697373A3
:103FE000696E6720706172616D65746572730D0A28
:103FF00000000000546F6F206D616E792070617257
:10400000616D65746572730D0A0000006E756D3D1B
:1040100025642025730D0A0000408F40FCA9F1D2D1
:104020004D62104000080140FEB50022009201924E
:1040300014460292022801DA30A002E00A2803DDC9
:1040400034A0FEF7CDFFFEBD49686846FCF759F97C
:104050006846FCF76EF90546014634A0FEF7C0FF3E
:104060002846FCF7F9F90022334BFCF76FF9FCF70F
:1040700030FAFCF71BFA1022FCF7D7F92F4A304B25
:10408000FCF764F9FCF7F9F92E4D86B201221021F4
:104090002846FCF7E3FC002208212846FCF7DEFC5A
:1040A00000BF00BF06FA04F0000401D5012200E0C1
:1040B000002240212846FCF7D1FC00BF00BF0022AF
:1040C00020212846FCF7CAFC00BF00BF01222021A6
:1040D0002846FCF7C3FC00BF00BF641CE4B2102CF0
:1040E000E0D300BF00BF002210212846FCF7B6FC39
:1040F000012208212846FCF7B1FCFEBD4D6973730F
:10410000696E6720706172616D65746572730D0A06
:1041100000000000546F6F206D616E792070617235
:10412000616D65746572730D0A0000006E756D3DFA
:1041300025642025730D0A0000408F40FCA9F1D2B0
:104140004D62104000080140FEB50022009201922D
:104150000292022801DA13A001E003DD17A0FEF7A6
:104160003FFFFEBD49686846FCF7CBF86846FCF7A0
:10417000E0F80446014617A0FEF732FF184E4FF450
:10418000805554B1012CECD116A0FEF729FF012275
:1041900029463046FCF762FCFEBD18A0FEF720FF62
:1041A0000022F5E74D697373696E67207061726173
:1041B0006D65746572730D0A00000000546F6F2006
:1041C0006D616E7920706172616D65746572730DD9
:1041D0000A0000006E756D3D25642025730D0A00F0
:1041E000000C0140736574204D6F646520746F206E
:1041F00043757272656E740D0A0000007365742059
:10420000506C6F617220746F20566F6C74616765BB
:104210000D0A00003EB5002200920192029202288F
:1042200001DA12A001E003DD16A0FEF7D9FE3EBDC3
:1042300049686846FCF765F86846FCF77AF8044672
:10424000014616A0FEF7CCFE174D54B1012CEED15D
:1042500016A0FEF7C5FE012280212846FCF7FEFBD2
:104260003EBD18A0FEF7BCFE0022F5E74D69737352
:10427000696E6720706172616D65746572730D0A95
:1042800000000000546F6F206D616E7920706172C4
:10429000616D65746572730D0A0000006E756D3D89
:1042A00025642025730D0A00000801407365742001
:1042B0004F757470757420746F2028596573290DBB
:1042C0000A000000736574204F7574707574207453
:1042D0006F20284E6F74290D0A000000FEB50022E1
:1042E000009201920292022801DA13A001E003DD9C
:1042F00017A0FEF775FEFEBD49686846FCF701F899
:104300006846FCF716F80446014617A0FEF768FE5B
:10431000184E4FF4004554B1012CECD116A0FEF715
:104320005FFE012229463046FCF798FBFEBD17A030
:10433000FEF756FE0022F5E74D697373696E67203C
:10434000706172616D65746572730D0A0000000022
:10435000546F6F206D616E7920706172616D65744C
:104360006572730D0A0000006E756D3D2564202591
:10437000730D0A000008014073657420506C6F6172
:104380007220746F202D0D0A0000000073657420E8
:10439000506C6F617220746F202B0D0A00000000BA
:1043A00070B5054604680BE0A4F1140106A0FEF701
:1043B00017FE2068A84202D004A0FEF711FE246870
:1043C000AC42F1D170BD0000257300002F00000049
:1043D00010B5014600206FF02F0307E0541C0C605D
:1043E000127800EB800003EB400010440A68147858
:1043F000303C0A2CF2D310BD10B5FDF76FF8002049
:1044000010BD000010B518A0FEF7EAFD1A4C218877
:104410001AA0FEF7E5FD2088C00702D01DA0FEF718
:10442000DFFD2088800702D51DA0FEF7D9FD20887A
:10443000400702D51DA0FEF7D3FD2088000702D556
:104440001CA0FEF7CDFD2088C00502D51BA0FEF7FD
:10445000C7FD2088800502D51BA0FEF7C1FDBDE881
:10446000104004A0FEF7BCBD7573616765206661EE
:10447000756C743A0A0000002AED00E05343425F75
:10448000434653525F554653523A3078253032589E
:1044900020000000554E444546494E5354522000DA
:1044A000494E56535441544520000000494E565041
:1044B000432000004E4F435020000000554E414C19
:1044C00049474E454420000044495642595A4552F6
:1044D0004F20000010B5FFF703F8002010BD0000CA
:1044E00000000000000001020304060708090000A4
:1044F00000000102030400000100020001000300AB
:10450000010002000100040001000200010003009C
:10451000010002000100050001000200010003008B
:10452000010002000100040001000200010003007C
:10453000010002000100060001000200010003006A
:10454000010002000100040001000200010003005C
:10455000010002000100050001000200010003004B
:10456000010002000100040001000200010003003C
:104570000100020001000700010002000100030029
:10458000010002000100040001000200010003001C
:10459000010002000100050001000200010003000B
:1045A00001000200010004000100020001000300FC
:1045B00001000200010006000100020001000300EA
:1045C00001000200010004000100020001000300DC
:1045D00001000200010005000100020001000300CB
:1045E00001000200010004000100020001000300BC
:1045F00001000200010030313233343536373839AA
:104600006162636465660030313233343536373881
:10461000394142434445460000404040404040400C
:104620004040414141414140404040404040404085
:104630004040404040404040400502020202020229
:104640000202020202020202022020202020202078
:10465000202020020202020202029090909090908C
:10466000101010101010101010101010101010104A
:1046700010101010020202020202888888888888BE
:1046800008080808080808080808080808080808AA
:10469000080808080202020240000000194600084B
:1046A000252D2A2E73207072692020737461747511
:1046B000732020202020207370202020202073745D
:1046C00061636B2073697A65206D6178207573650D
:1046D00064206C656674207469636B202065727257
:1046E0006F720A005F5F636D645F7365745F706C07
:1046F0006F6172007365745F706C6F617228303D1A
:10470000502C313D4E29005F5F636D645F736574AB
:104710005F6D6F6465007365745F6D6F64652830ED
:104720003D562C313D4329005F5F636D645F7365C7
:10473000745F6F7574007365745F6F757428303DB6
:104740004E6F74204F75747075742C313D4F7574B5
:1047500070757429005F5F636D645F7365745F6477
:10476000616331005365745F4441433128566F6C77
:1047700074616765292056616C20286D5629005F99
:104780005F636D645F7365745F646163320053657A
:10479000745F444143322843757272656E742920F8
:1047A00056616C20286D4129006C6973745F6D65DA
:1047B0006D006C697374206D656D6F72792075730F
:1047C00061676520696E666F726D6174696F6E00F6
:1047D00068656C6C6F007361792068656C6C6F2024
:1047E000776F726C640076657273696F6E007368C0
:1047F0006F772052542D546872656164207665721B
:1048000073696F6E20696E666F726D6174696F6E29
:10481000005F5F636D645F76657273696F6E0073CE
:10482000686F772052542D546872656164207665F4
:104830007273696F6E20696E666F726D6174696FF5
:104840006E006C6973745F746872656164006C6992
:10485000737420746872656164005F5F636D645F88
:104860006C6973745F746872656164006C697374F9
:1048700020746872656164006C6973745F73656D40
:10488000006C6973742073656D6170686F72652068
:10489000696E2073797374656D005F5F636D645F2B
:1048A0006C6973745F73656D006C697374207365F4
:1048B0006D6170686F726520696E207379737465BD
:1048C0006D006C6973745F6D61696C626F78006C08
:1048D000697374206D61696C20626F7820696E2045
:1048E00073797374656D005F5F636D645F6C69738A
:1048F000745F6D61696C626F78006C697374206DB0
:1049000061696C20626F7820696E207379737465B9
:104910006D006C6973745F74696D6572006C6973A6
:10492000742074696D657220696E20737973746583
:104930006D005F5F636D645F6C6973745F74696D54
:104940006572006C6973742074696D657220696E9C
:104950002073797374656D006C697374006C69738E
:104960007420616C6C2073796D626F6C20696E20AD
:1049700073797374656D005F5F636D645F68656C08
:10498000700052542D546872656164207368656CC0
:104990006C2068656C702E005F5F636D645F707380
:1049A000004C697374207468726561647320696E69
:1049B000207468652073797374656D2E005F5F6382
:1049C0006D645F667265650053686F772074686513
:1049D000206D656D6F727920757361676520696EF2
:1049E000207468652073797374656D2E0000000073
:1049F0009D3E0008953E0008F9430008913E0008DE
:104A0000691A0008993E0008E4460008F4460008C8
:104A1000DD42000807470008164700084941000822
:104A20002847000836470008154200085547000887
:104A300064470008093F00087F4700088E470008C8
:104A400029400008A9470008B24700088120000853
:104A5000D0470008D6470008011E0008E6470008B6
:104A6000EE470008D5440008114800081F48000818
:104A7000D5440008424800084E48000809220008B2
:104A80005A4800086C4800080922000878480008C5
:104A900081480008ED2000089A480008A94800084D
:104AA000ED200008C2480008CF4800083D1F00085C
:104AB000E7480008FA4800083D1F000812490008AE
:104AC0001D490008C1230008324900084349000875
:104AD000C1230008584900085D4900084D1E000820
:104AE0007749000882490008AD2700089849000866
:104AF000A1490008DF190008BD490008C84900089D
:104B0000D5190008244B000800000020BC0000005C
:104B100070170008E04B0008BC000020AC1F00002C
:104B200080170008010000001000000000000000D5
:104B30000024F4000000000000000000000000005D
:104B40000000000000000000000000000000000065
:104B50000000000000000000000000000000000055
:104B6000000000000100000044000020440000207C
:104B700078000000020000005400002054000020D3
:104B800020000000050000006400002064000020F8
:104B9000300000000A0000007400002074000020B3
:104BA0002C000000000000000000000000000000D9
:104BB00000000000000000000000000000000000F5
:104BC00000000000000000000000000000000000E5
:104BD00000000000000000000000000000000000D5
:0400000508000131BD
:00000001FF
